{
  "contractName": "ABIGenTest",
  "abi": [
    {
      "constant": false,
      "inputs": [],
      "name": "x",
      "outputs": [],
      "payable": false,
      "stateMutability": "nonpayable",
      "type": "function"
    },
    {
      "constant": false,
      "inputs": [
        {
          "name": "b",
          "type": "uint256"
        }
      ],
      "name": "x",
      "outputs": [],
      "payable": false,
      "stateMutability": "nonpayable",
      "type": "function"
    }
  ],
  "bytecode": "0x608060405234801561001057600080fd5b5060d38061001f6000396000f3fe6080604052600436106043576000357c0100000000000000000000000000000000000000000000000000000000900480630c55699c1460485780633f4263ef14605c575b600080fd5b348015605357600080fd5b50605a6093565b005b348015606757600080fd5b50609160048036036020811015607c57600080fd5b8101908080359060200190929190505050609d565b005b6001600081905550565b806000819055505056fea165627a7a72305820b2cac96d8782bb401be396c7e42244cea40acd1b094004e6ba0c4aafd59aca100029",
  "source": "pragma solidity ^0.5.1;\n\n\ncontract ABIGenTest {\n    uint a;\n    function x() external {\n        a = 1;\n    }\n\n    function x(uint b) external {\n        a = b;\n    }\n}\n",
  "sourcePath": "/home/gak/research/abigen-test/contracts/ABIGenTest.sol",
  "compiler": {
    "name": "solc",
    "version": "0.5.1+commit.c8a2cb62.Emscripten.clang"
  },
  "schemaVersion": "3.0.0",
  "updatedAt": "2018-12-25T18:16:51.535Z",
  "devdoc": {
    "methods": {}
  },
  "userdoc": {
    "methods": {}
  }
}